:100000000C9445170C9476170C9476170C9476176D
:100010000C9476170C9476170C9476170C9476172C
:100020000C9476170C9476170C9476170C9476171C
:100030000C9476170C9476170C9476170C9476170C
:100040000C9476170C94E1A50C9476170C94761703
:100050000C9476170C9476170C94F39A0C947F8575
:100060000C9476170C9445590C943B590C947617C4
:100070000C9476170C9476170C9476170C947617CC
:100080000C9476170C9476170C9476170C947617BC
:100090000C9476170C9476170C9476170C947617AC
:1000A0000C9476170C9476170C9476170C9476179C
:1000B0000C9476170C9476170C9476170C9476178C
:1000C0000C9476170C9476170C9476170C9476177C
:1000D0000C9476170C9476170C9476170C9476176C
:1000E0000C947617084AD73B3BCE016E84BCBFFD0B
:1000F000C12F3D6C74319ABD56833DDA3D00C77FF8
:1001000011BED9E4BB4C3E916BAAAABE0000008090
:100110003F05A84CCDB2D44EB93836A9020C50B91F
:10012000918688083CA6AAAA2ABE000000803F004B
:100130000C94E3830C94DF830C94A06F0C942F1A1F
:100140000C948C590C941E200C94421A0C949F6FA2
:100150000C94854B0C94E8190C94521C0C94AE83AF
:100160000C94AD550C94033B0C9416200C94D34680
:100170000C94A21C0C9421440C94CF830C941C1A54
:100180000C94F0400C94E7830C94F1830C94CF2AE8
:100190000C943F200C94741A0C9491420C941256B7
:1001A0000C9429390C94E9440C94C7550C943020D4
:1001B0000C94A56F0C941A200C9417390C94901978
:1001C0000C948C2D0C94CF190C94DF2A0C94C083C2
:1001D0000C941D710C94D5830C9406230C945938FF
:1001E0000C94011A0C94091D0C946F340C94C344A4
:1001F0000C9400BF0C94D1550C941D390C944120E3
:100200000C94031D0C947F3D0C9454380C943C19B1
:100210000C9435200C94AB1C0C945B1C0C94BD55B9
:100220000C94FF830C94C4830C9408560C941C56B5
:100230000C9458200C94EA550C947B190C94F23BC6
:100240000C94101C0C9447200C94F71C0C94FB830A
:100250000C94FE550C94AA1D0C94DEB70C94DF226E
:100260000C943A200C94B6440C9468230C94A91D69
:100270000C94391B0C9405390C94C1460C94C8831A
:100280000C94B5550C9450340C94F5830C9449207F
:100290000C94BD440C94662C0C94A3550C946819D2
:1002A0000C94ED830C9487190C94DB550C94D98332
:1002B0000C944B200C94CC830C940B390C94FF3889
:1002C0000C9485550C9423390C94FE2A0C94FD3320
:1002D0000C942C2B0C9445200C9443200C947D2ED4
:1002E0000C948A550C945E380C9411390C94682C3B
:1002F0000C9455190C948F550C94ED390C94BE2A1E
:100300000C94AE1C0C94F4550C9499550C94FD1C53
:100310000C94A9834E414E494E495459494E46CDFD
:10032000CCCC3D0AD7233C17B7D13877CC2B3295AC
:1003300095E6241FB14F0A000020410000C842008A
:10034000401C4620BCBE4CCA1B0E5AAEC59D740054
:10035000407A10F35A00A0724E18090010A5D4E894
:100360000000E87648170000E40B54020000CA9A27
:100370003B000000E1F50500008096980000004079
:10038000420F000000A086010000001027000000BE
:1003900000E803000000006400000000000A000004
:1003A0000000000100000000002C76D888DC674FB8
:1003B0000823DFC1DFAE59E1B1B796E5E3E453C6E8
:1003C0003AE651997696E8E6C28426EB898C9B62E0
:1003D000ED407C6FFCEFBC9C9F40F2BAA56FA5F48A
:1003E00090055A2AF75C936B6CF9676DC11BFCE0B2
:1003F000E40D47FEF520E6B500D0ED902E03009405
:100400003577050080841E080000204E0A00000099
:10041000C80C333333330F986E12831141EF8D21A3
:1004200014893BE65516CFFEE6DB18D1844B381B0A
:10043000F77C1D901DA4BBE424203284725E2281CF
:1004400000C9F124ECA1E53D27434F4D4D554E49E0
:10045000434154494F4E0044525952554E00455263
:10046000524F525300494E464F004543484F0045B6
:1004700072726F722077726974696E6720746F2070
:10048000454550524F4D210A004D343130004D3119
:100490003132004D3130380053544F505045442EC6
:1004A00020005072696E7465722073746F7070658D
:1004B000642064756520746F206572726F72732E8C
:1004C0002046697820746865206572726F722061B9
:1004D0006E6420757365204D39393920746F207230
:1004E0006573746172742E202854656D7065726135
:1004F000747572652069732072657365742E20535C
:100500006574206974206166746572207265737405
:10051000617274696E67290A004E6F2043686563D3
:100520006B73756D2077697468206C696E65206ED9
:10053000756D6265722C204C617374204C696E6518
:100540003A20004E6F20436865636B73756D2077AA
:10055000697468206C696E65206E756D6265722CB9
:10056000204C617374204C696E653A2000636865A5
:10057000636B73756D206D69736D617463682C2096
:100580004C617374204C696E653A20004C696E654D
:10059000204E756D626572206973206E6F74204CF9
:1005A000617374204C696E65204E756D6265722BA7
:1005B000312C204C617374204C696E653A20004DDB
:1005C0003131300053442072656164206572726F6E
:1005D000720A002121204B494C4C206361757365E0
:1005E00064206279204B494C4C20627574746F6EA4
:1005F0002F70696E0A002121204B494C4C20636109
:100600007573656420627920746F6F206D756368FF
:1006100020696E6163746976652074696D65202D4B
:100620002063757272656E7420636F6D6D616E64A8
:100630003A2000627573793A2070617573656420A1
:10064000666F7220696E7075740A00627573793A0C
:100650002070617573656420666F722075736572B2
:100660000A00627573793A2070726F6365737369FB
:100670006E670A004D656469612052656D6F76652D
:1006800064004D6564696120496E736572746564C8
:10069000006563686F3A004572726F723A002049D4
:1006A0006E76616C69642065787472756465722019
:1006B0000047322F47332062616420706172616DA0
:1006C00065746572730A00536C6565702E2E2E007A
:1006D000436C69636B20746F20526573756D652E72
:1006E0002E2E004E6F204D6F76652E00456E6420D5
:1006F00066696C65206C6973740A00426567696E8F
:100700002066696C65206C6973740A004E6F206DF9
:10071000656469610A00286E6F2066696C6529004E
:1007200043757272656E742066696C653A20005379
:1007300044207072696E74696E67206279746520F6
:10074000004E6F74205344207072696E74696E6736
:100750000A002E0A0044656C6574696F6E2066613C
:10076000696C65642C2046696C653A200046696CAA
:10077000652064656C657465643A002569730025BD
:10078000696D20256973002569682025696D20251C
:10079000697300256964202569682025696D202515
:1007A00069730025697920256964202569682025F9
:1007B000696D20256973005072696E742074696DCB
:1007C000653A200020543A300A006F6B006F66666D
:1007D000006A0465045E04570449044445425547D1
:1007E0003A004D3131322053687574646F776E0072
:1007F0004D3131332053005631434E43203530388C
:1008000044204F46462E004348414D4245525F54D6
:10081000454D50455241545552450042414259536D
:1008200054455050494E470041524353004D4F5498
:10083000494F4E5F4D4F44455300544845524D413A
:100840004C5F50524F54454354494F4E004C4F4E0D
:10085000475F46494C454E414D45004155544F5226
:1008600045504F52545F53445F53544154555300C5
:100870005344434152440050524F4D50545F5355DE
:1008800050504F525400454D455247454E43595FD5
:1008900050415253455200434153455F4C494748EC
:1008A000545F4252494748544E45535300544F47B2
:1008B000474C455F4C494748545300534F465457A3
:1008C0004152455F504F574552004255494C445F95
:1008D00050455243454E54004C4556454C494E47B1
:1008E0005F44415441005A5F50524F4245005255B7
:1008F0004E4F5554004155544F4C4556454C0050B1
:1009000052494E545F4A4F420050524F475245534E
:1009100053004155544F5245504F52545F54454D2A
:100920005000564F4C554D45545249430045455093
:10093000524F4D0042494E4152595F46494C455F26
:100940005452414E534645520053455249414C5F23
:10095000584F4E5F584F4646004649524D574152F8
:10096000455F4E414D453A4D61726C696E203530A0
:10097000384420322E302E372E3220284E6F7620EB
:10098000203220323032302032333A34333A303968
:100990002920534F555243455F434F44455F5552BD
:1009A0004C3A68747470733A2F2F67697468756273
:1009B0002E636F6D2F4D61726C696E4669726D7733
:1009C0006172652F4D61726C696E2050524F544FA9
:1009D000434F4C5F56455253494F4E3A312E3020CB
:1009E0004D414348494E455F545950453A5631436D
:1009F0004E432035303844204558545255444552D2
:100A00005F434F554E543A3020555549443A63653B
:100A10006465326132662D343161322D34373438B9
:100A20002D396231322D63353563363266333637D0
:100A300066660A002F2F2000205200416363656C18
:100A400065726174696F6E3A2050004F4646004FE0
:100A50004E0020204D61783A2000200020204D6972
:100A60006E3A2000536F667420656E6473746F7005
:100A7000733A200046523A00486F6D652025732571
:100A8000732573204669727374004F6666736574CC
:100A900073204170706C696564004572723A20542D
:100AA0006F6F206661722100546F6F206661722043
:100AB00066726F6D207265666572656E6365207023
:100AC0006F696E740A00454550524F4D204F4B0AD6
:100AD000002059323A002058323A004475616C20A7
:100AE000456E6473746F702041646A7573746D65CC
:100AF0006E7420286D6D293A2000446F6E65207059
:100B000072696E74696E672066696C650A004D379C
:100B100037004D33310053656C65637420776F7215
:100B20006B737061636520004361703A00220A00B4
:100B3000656E7175657565696E672022006F6B0063
:100B4000526573656E643A20004572723A2075747E
:100B5000663820666F6E74206E6F7420696E6974DB
:100B600069616C697A65642E004572723A20757409
:100B7000663820666F6E74206E6F7420696E6974BB
:100B800069616C697A65642E004572723A207574E9
:100B9000663820666F6E74206E6F7420696E69749B
:100BA00069616C697A65642E0042656400456E6314
:100BB0006C6F73757265005654726176204D696E64
:100BC00000566D696E00566D6178205A00566D6151
:100BD00078205900566D6178205800416D61782069
:100BE0005A00416D6178205900416D6178205800AC
:100BF000412D54726176656C00412D5265747261AD
:100C0000637400416363656C0056652D4A65726BC1
:100C100000565A2D4A65726B0056592D4A65726B03
:100C20000056582D4A65726B005A205374657073D4
:100C30002F6D6D00592053746570732F6D6D0058C2
:100C40002053746570732F6D6D00416476616E631F
:100C500065642053657474696E6773003F00436177
:100C60006E63656C00496E6974004D34323800491A
:100C70006E697469616C697A6520454550524F4DC3
:100C80000053746570732F6D6D004A65726B00417F
:100C90006363656C65726174696F6E0056656C6F35
:100CA000636974790053657420486F6D65204F66E1
:100CB000667365747300436F6E66696775726174FD
:100CC000696F6E004C6F61642053657474696E6760
:100CD0007300526573746F72652044656661756C4C
:100CE00074730053746F72652053657474696E6712
:100CF0007300416476616E63656420536574746942
:100D00006E6773004D61696E00473932205830209C
:100D10005930205A300A4D313137205573657220D1
:100D200053637269707420446F6E650047323820D7
:100D30005A0A4D31313720557365722053637269F9
:100D4000707420446F6E6500473238205820590A6D
:100D50004D31313720557365722053637269707459
:100D600020446F6E6500486F6D65205A2041786998
:100D70007300486F6D65205826590052657365747D
:100D800020416C6C20436F6F7264696E617465738F
:100D9000004D61696E003F004261636B0053746FE8
:100DA00070005072696E742066726F6D204D6564BC
:100DB0006961004368616E6765204D656469610023
:100DC0004D323100563120437573746F6D204D657F
:100DD0006E7500436F6E66696775726174696F6ED8
:100DE000004D6F74696F6E00526573756D652050AC
:100DF00072696E740054756E650053746F70205084
:100E000072696E74005061757365205072696E74FA
:100E1000004E6F204D6564696100496E666F205316
:100E2000637265656E003F00537461727420507286
:100E3000696E740043616E63656C005072696E7414
:100E40000043616E6E6F7420656E746572207375F9
:100E5000626469723A2000022E2E004D61696E00B4
:100E60004F6666004F6E00536F667420456E647364
:100E7000746F7073004D6F74696F6E0044697361B5
:100E8000626C65205374657070657273004D383400
:100E900000486F6D65205A004732385A00486F6D20
:100EA000652059004732385900486F6D6520580059
:100EB00047323858004175746F20486F6D650047A0
:100EC0003238004D61696E0046616E205370656571
:100ED00064005370656564004D61696E0025687536
:100EE0003A25303268750025303268753A2530323F
:100EF000687500256875642025303268753A25309C
:100F00003268750020202020202020002020202072
:100F1000003FFFF038007030FC3020FC10207810CB
:100F20002030102C00D02E31D02F7BD02F7BD02E14
:100F300031D02C00D020301020781020FC1030FC54
:100F4000303800703FFFF03FFFF0380070318630DE
:100F50002387102787902F87D02F03D02030102091
:100F600078102078102030102F03D02F87D02787BB
:100F7000902387103186303800703FFFF05072693F
:100F80006E742041626F72746564004D323500509A
:100F9000617573696E672E2E2E006F70656E00543A
:100FA0005249474745524544003A20007A5F6D69EF
:100FB0006E0079325F6D696E00795F6D696E0078E1
:100FC000325F6D696E00785F6D696E005265706F9B
:100FD0007274696E6720656E6473746F70207374C9
:100FE000617475730A00486F6D696E6720466169A8
:100FF0006C656400000000000000000000000000BC
:101000000000F0410000F041000040405761726E66
:10101000696E673A20486F6D696E672042756D7022
:101020002044697669736F72203C20310A00020205
:10103000040000A0400000A0400000004000009616
:10104000430000964300004843FFFFFF00000001FB
:1010500000000001000080005555550000004000D0
:1010600033333300AAAA2A0049922400000020004A
:10107000C7711C0099991900D145170055551500E5
:101080003BB113002449120011111100000010009F
:101090000F0F0F00E3380E0043790D00CCCC0C008D
:1010A000C3300C00E8A20B0064210B00AAAA0A00BE
:1010B000703D0A009DD80900427B09009224090076
:1010C000DCD30800888808001042080000000800EF
:1010D000F0C107008787070075500700711C0700E3
:1010E0003EEB0600A1BC060069900600666606009D
:1010F000703E06006118060017F4050074D1050063
:101100005BB00500B2900500627205005555050000
:1011100078390500B81E0500050505004EEC0400F1
:1011200087D40400A1BD040090A7040049920400E4
:10113000C17D0400EE690400C75604004444040065
:101140005C32040008210400411004000000040087
:101150003FF00300F8E0030026D20300C3C30300FE
:10116000CCB503003AA803000A9B0300388E0300A5
:10117000C08103009F750300D0690300505E030027
:101180001D53030034480300913D03003333030033
:1011900016290300381F030097150300300C0300C5
:1011A000030303000BFA020049F10200BAE802004F
:1011B0005CE002002DD802002DD0020059C80200C8
:1011C000B0C0020031B90200DAB10200AAAA0200DE
:1011D000A0A30200BC9C0200FA9502005C8F0200F2
:1011E000DF88020082820200457C0200277602002E
:1011F00027700200436A02007C640200D05E020095
:101200003F590200C8530200000C0F00FE070225E0
:1012100003BB017FFE08FE08FE050808060000402B
:10122000F0C88888987810050808060000C0F8887B
:1012300088888888F80505050600012030F83020E8
:101240000508080600002070F820202020E005098D
:10125000090600FF2070A8A8B88888702007050537
:10126000070001D86C366CD80509090600FFF8A8FC
:101270008888888888A8F8050A0A0600FE20505049
:10128000505088A8A8887003030306000340A040BC
:10129000FFFFFFFFFFFFFFFFFFFFFFFFFFFFFFFF5E
:1012A000FFFFFFFFFFFF0000000605FF0107070625
:1012B000020080808080800080030303060105A077
:1012C000A0A005060606000050F85050F850050989
:1012D000090600FF2070A8A07028A8702005070745
:1012E000060000C8C81020409898050707060000AF
:1012F00040A0A040A89068010303060205808080FA
:101300000309090601FF20404080808040402003FF
:1013100009090601FF804040202020404080050749
:101320000706000020A8702070A82005050506000B
:10133000012020F820200203030601FFC0408005A1
:101340000101060003F8020202060100C0C0050701
:10135000070600000810102040408005070706001F
:1013600000708898A8C8887003070706010040C06D
:1013700040404040E0050707060000708808102044
:1013800040F8050707060000F808103008887005C7
:10139000070706000010305090F8101005070706E8
:1013A0000000F880F0080888700507070600003084
:1013B0004080F0888870050707060000F8081010C4
:1013C0002020200507070600007088887088887034
:1013D0000507070600007088887808106002050578
:1013E000060100C0C000C0C00206060601FFC0C062
:1013F00000C0408003050506010120408040200513
:101400000303060002F800F8030505060101804009
:10141000204080050707060000708810202000206B
:101420000507070600007088B8A8B8807005070790
:10143000060000708888F88888880507070600007D
:10144000F04848704848F00507070600007088809B
:1014500080808870050707060000F0484848484823
:10146000F0050707060000F88080F08080F8050787
:1014700007060000F88080F08080800507070600DE
:1014800000708880809888700507070600008888AB
:1014900088F8888888030707060100E0404040403C
:1014A00040E0050707060000381010101090600596
:1014B00007070600008890A0C0A0908805070706CF
:1014C0000000808080808080F80507070600008883
:1014D000D8A8888888880507070600008888C8A8D3
:1014E00098888805070706000070888888888870B3
:1014F000050707060000F08888F080808005070750
:1015000006000070888888A8906805070706000014
:10151000F08888F0A0908805070706000070888092
:1015200070088870050707060000F820202020209A
:1015300020050707060000888888888888700507C6
:101540000706000088888888505020050707060095
:101550000088888888A8A8500507070600008888A2
:1015600050205088880507070600008888502020F2
:101570002020050707060000F80810204080F80327
:1015800009090601FFE080808080808080E00507F7
:1015900007060000804040201010080309090601DA
:1015A000FFE020202020202020E005030306000586
:1015B0002050880501010600FEF80303030601051B
:1015C000804020050505060000700878887805072A
:1015D000070600008080F0888888F0050505060071
:1015E000007080808870050707060000080878886A
:1015F0008888780505050600007088F0807005076A
:1016000007060000304840E040404005070706005C
:10161000FE708888887808700507070600008080BB
:10162000F0888888880307070601004000C0404012
:1016300040E00409090601FE10003010101010905F
:101640006005070706000080808890E09088030707
:1016500007060100C04040404040E0050505060087
:1016600000D0A8A8A8A8050505060000B0C888886D
:10167000880505050600007088888870050707063C
:1016800000FEF0888888F080800507070600FE7855
:10169000888888780808050505060000B0C880809D
:1016A0008005050506000078807008F0050707062C
:1016B00000002020F82020201805050506000088DD
:1016C00088889868050505060000888888502005E8
:1016D00005050600008888A8A85005050506000035
:1016E00088502050880507070600FE88888850200B
:1016F0004080050505060000F8102040F8030909A0
:101700000601FF204040408040404020010909067A
:1017100002FF80808080808080808003090906012C
:10172000FF80404040204040408005030306000207
:1017300048A890FF5072696E74205061757365649B
:1017400000FFFDFCFAF8F6F4F2F0EEECEAE9E7E56A
:10175000E3E1E0DEDCDAD9D7D5D4D2D0CFCDCBCA25
:10176000C8C7C5C3C2C0BFBDBCBAB9B7B6B4B3B2AF
:10177000B0AFADACAAA9A8A6A5A4A2A1A09E9D9C0D
:101780009A99989795949392908F8E8D8B8A898849
:10179000878684838281807F7E7D7B7A7978777665
:1017A0007574737271706F6E6D6C6B6A6968676661
:1017B0006564636261605F5E5D5C5B5A595858574F
:1017C00056555453525150504F4E4D4C4B4A4A4926
:1017D00048474646454443424241403F3E3E3D3CE9
:1017E0003B3B3A393838373635353433323231309D
:1017F000302F2E2E2D2C2B2B2A2929282727262542
:101800002524232322212120201F1E1E1D1C1C1BDA
:101810001B1A191918181716161515141313121266
:101820001111100F0F0E0E0D0D0C0C0B0A0A0909E9
:101830000808070706060505040403030202010061
:10184000000000964300009643000048430000005B
:1018500000000000000000000053657474696E67AA
:10186000732053746F72656400290A0020627974D2
:1018700065733B20637263200053657474696E67FF
:10188000732053746F726564202800454550524F91
:101890004D206461746173697A65206572726F723C
:1018A0002E0A00290A002062797465733B20637256
:1018B0006320002073746F726564207365747469AB
:1018C0006E6773207265747269657665642028009E
:1018D000202863616C63756C6174656429210A005A
:1018E00020213D2000454550524F4D20435243207A
:1018F0006D69736D61746368202D202873746F7235
:1019000065642920002053697A653A2000496E6495
:1019100065783A200044494749504F5453204C6F52
:10192000616465640A0044494749504F5453204C50
:101930006F6164696E670A00204D61726C696E3D6B
:10194000563832290A00454550524F4D207665726F
:1019500073696F6E206D69736D61746368202845CB
:101960004550524F4D3D00454550524F4D20496E18
:10197000697469616C697A65640A004861726463BC
:101980006F6465642044656661756C74205365748A
:1019900074696E6773204C6F616465640A000000AF
:1019A000484200004842000070410000C841000069
:1019B0004843000048430000484400004843B40046
:1019C0000000B400000050000000B400000020201F
:1019D0004D36363600456E6473746F702061646AEC
:1019E0007573746D656E743A0020204D3230362068
:1019F0005800486F6D65206F66667365743A002005
:101A0000580020530020204D3230352042004164E0
:101A100076616E6365643A20423C6D696E5F736502
:101A2000676D656E745F74696D655F75733E205395
:101A30003C6D696E5F66656564726174653E2054D5
:101A40003C6D696E5F74726176656C5F6665656436
:101A5000726174653E20583C6D61785F785F6A659D
:101A6000726B3E20593C6D61785F795F6A65726B7D
:101A70003E205A3C6D61785F7A5F6A65726B3E20EA
:101A8000453C6D61785F655F6A65726B3E0020540E
:101A90000020520020204D3230342050004163633A
:101AA000656C65726174696F6E2028756E697473F8
:101AB0002F7332293A20503C7072696E745F6163F3
:101AC00063656C3E20523C726574726163745F6141
:101AD0006363656C3E20543C74726176656C5F6133
:101AE0006363656C3E0020204D3230312058004D3C
:101AF0006178696D756D20416363656C65726174B1
:101B0000696F6E2028756E6974732F7332293A00DD
:101B100020204D3230332058004D6178696D756D4D
:101B2000206665656472617465732028756E6974DA
:101B3000732F73293A005374657073207065722097
:101B4000756E69743A0020204D3134392043203BB2
:101B500020556E69747320696E2043656C736975D6
:101B6000730A0020286D6D29002020473231202083
:101B700020203B20556E69747320696E206D6D00C6
:101B800024F4D43050C38E20C2A24017828B70112F
:101B9000127A910D816CD90AA861E108C7586607CD
:101BA000615143061E4B5D05C145A7041A4111044E
:101BB000093D9803713931034036DB0265339102E8
:101BC000D4305402802E1D02632CEE01752AC5010B
:101BD000B028A001102781018F2564012B244B011F
:101BE000E0223401AC211F018D200D01801FFC007B
:101BF000841EED00971DDF00B81CD200E61BC60056
:101C0000201BBC00641AB200B219A8000A19A00077
:101C10006A189900D117910040178B00B5168400FF
:101C200031167E00B31579003A157300C7146F00A2
:101C300058146A00EE1366008813630025135E00D3
:101C4000C7125B006C12570015125400C1115100ED
:101C500070114F0021114B00D61049008D10470024
:101C60004610440002104200C00F4000800F3E00AA
:101C7000420F3C00060F3B00CB0E3800930E37009E
:101C80005C0E3500270E3400F30D3200C10D31001B
:101C9000900D3000600D2E00320D2D00050D2C0032
:101CA000D90C2B00AE0C2900850C29005C0C2700F8
:101CB000350C27000E0C2600E80B2400C40B240072
:101CC000A00B23007D0B23005A0B2100390B2100B0
:101CD000180B2000F80A1F00D90A1E00BB0A1E00BC
:101CE0009D0A1D00800A1D00630A1C00470A1B0094
:101CF0002C0A1B00110A1A00F7091A00DD09190045
:101D0000C4091900AB091900920917007B091800D2
:101D1000630917004C091600360916002009160041
:101D20000A091500F5081500E0081400CC08140095
:101D3000B8081400A4081400900813007D081200CD
:101D40006B081300580812004608120034081100EE
:101D5000230811001208110001081100F0071000FB
:101D6000E0071000D0071000C0071000B0070F00F8
:101D7000A107100091070E0083070F0074070F00E2
:101D800065070E0057070E0049070E003B070D00C0
:101D90002E070E0020070D0013070D0006070D008B
:101DA000F9060C00ED060D00E0060C00D4060C0050
:101DB000C8060C00BC060C00B0060C00A4060B0004
:101DC00099060C008D060B0082060B0077060B00AF
:101DD0006C060B0061060A0057060B004C060A0051
:101DE00042060A0038060A002E060A0024060A00E7
:101DF0001A060A001006090007060A00FD05090078
:101E0000F4050900EB050900E2050900D905090000
:101E1000D0050900C7050900BE050900B505080081
:101E2000AD050800A50509009C05080094050800FB
:101E30008C050800840508007C050800740508006E
:101E40006C050700650508005D05070056050800DC
:101E50004E05070047050700400508003805070044
:101E6000310507002A050700230507001C050600A9
:101E7000160507000F050700080506000205070004
:101E8000FB040600F5040700EE040600E804060063
:101E9000E2040700DB040600D5040600CF040600B8
:101EA000C9040600C3040600BD040600B70406000A
:101EB000B1040500AC040600A6040600A004050059
:101EC0009B04060095040500900406008A040500A2
:101ED00085040500800406007A04050075040500E9
:101EE000700405006B04050066040500610405002C
:101EF0005C04050057040500520405004D0405006C
:101F000048040500430405003E0404003A040500AB
:101F100035040500300404002C04050027040400E7
:101F2000230405001E0404001A040400160405001E
:101F3000110404000D040400090405000404040055
:101F400000040400FC030400F8030400F40304008C
:101F5000F0030400EC030400E8030400E4030400BD
:101F6000E0030400DC030400D8030400D4030400ED
:101F7000D0030400CC030400C8030300C50303001E
:101F800024F404D9201BC40C5C0E9804C4095F021D
:101F900065077101F405F900FB04B30048048700EC
:101FA000C10369005803550003034500BE023A000F
:101FB0008402310053022A00290225000402200075
:101FC000E4011C00C8011900AF01170098011400BA
:101FD00084011300710110006101100051010E0015
:101FE00043010D0036010B002B010B0020010B00FB
:101FF000150109000C01090003010800FB0008009D
:10200000F3000800EB000700E4000600DE00060015
:10201000D8000600D2000600CC000500C70005006D
:10202000C2000500BD000400B9000400B5000400B2
:10203000B1000400AD000400A9000400A5000300E5
:10204000A20003009F0004009B000300980003000F
:102050009500020093000300900003008D00020031
:102060008B00030088000200860002008400030049
:10207000810002007F0002007D0002007B00020060
:10208000790002007700010076000200740002006F
:1020900072000100710002006F0002006D0001007B
:1020A0006C0002006A000100690002006700010084
:1020B000660001006500010064000200620001008A
:1020C00061000100600001005F0002005D0001008E
:1020D0005C0001005B0001005A0001005900010092
:1020E0005800010057000100560001005500010092
:1020F0005400010053000000530001005200010091
:1021000051000100500001004F0001004E0000008E
:102110004E0001004D0001004C0001004B0000008A
:102120004B0001004A000100490001004800000086
:102130004800010047000100460000004600010081
:10214000450000004500010044000100430000007C
:102150004300010042000000420001004100000075
:1021600041000100400001003F0000003F0001006D
:102170003E0000003E0001003D0000003D00010067
:102180003C0000003C0000003C0001003B0000005F
:102190003B0001003A0000003A0001003900000055
:1021A000390001003800000038000000380001004C
:1021B0003700000037000100360000003600000044
:1021C0003600010035000000350000003500010038
:1021D000340000003400000034000100330000002F
:1021E0003300000033000100320000003200000024
:1021F0003200010031000000310000003100010018
:102200003000000030000000300001002F0000000E
:102210002F0000002F0000002F0001002E00000002
:102220002E0000002E0001002D0000002D000000F7
:102230002D0000002D0001002C0000002C000000EB
:102240002C0000002C0001002B0000002B000000DF
:102250002B0000002B0001002A0000002A000000D3
:102260002A0000002A0001002900000029000000C7
:1022700029000000290000002900010028000000BA
:1022800028000000280000002800000028000100AD
:1022900027000000270000002700000027000000A2
:1022A0002700010026000000260000002600000094
:1022B0002600000026000100250000002500000087
:1022C0002500000025000000250000002500010079
:1022D000240000002400000024000000240000006E
:1022E0002400010023000000230000002300000060
:1022F0002300000023000000230000002300010051
:102300002200000022000000220000002200000045
:102310002200000022000100210000002100000036
:102320002100000021000000210000002100000029
:10233000210001002000000020000000200000001B
:10234000200000002000000020000000200000000D
:10235000200001001F0000001F0000001F000000FF
:102360001F0000001F0000001F0000001F000100F0
:102370001E0000001E0000001E0000001E000000E5
:10238000393000003325000087190000B00F00002D
:10239000DB080000BD040000740200003F010000E3
:1023A00020436F756E7420583A007C3C3E5E2B3D96
:1023B0003F2F5B5D3B2C2A225C0043616E6E6F7485
:1023C000206F70656E2073756264697220005344DB
:1023D00020496E6974204661696C00534420636132
:1023E0007264206F6B0A006F70656E526F6F74209D
:1023F0006661696C65640A00766F6C756D652E693F
:102400006E6974206661696C65640A004E6F2053C2
:102410004420636172640A004D3234004D3233202F
:102420002573002E0A006F70656E206661696C6509
:10243000642C2046696C653A200046696C652073FF
:10244000656C65637465640A002053697A653A2097
:102450000046696C65206F70656E65643A200045C2
:102460004E4420535542524F5554494E450A00227E
:1024700020706F73002220706172656E743A2200C2
:10248000535542524F5554494E452043414C4C20E0
:102490007461726765743A220053756263616C6C93
:1024A000204F766572666C6F77004578636565646A
:1024B0006564206D617820535542524F5554494E02
:1024C000452064657074683A310A0057726974690E
:1024D0006E6720746F2066696C653A2000667265CD
:1024E000736800646F696E67002066696C653A20E6
:1024F000004E6F77200000000A0B02090C0D0E0839
:1025000007030401000000000000000000000000BC
:1025100000000000000000000000000000000000BB
:102520000000121110000000000000000000000078
:102530000000000000000000000000000001FFFF9C
:10254000FFFFFFFFFFFFFFC183FFC0000007FFFF8A
:10255000FFFFFFFFFFFFFF87E1FFE000000FFFFF2E
:10256000FFFFFFFFFFFFFF0FF07FF000000E0000F6
:10257000000000000000001FFC3FF000001C0000F5
:10258000000000000000003FFE003800001C0000BA
:10259000000000000000007FFF803800001C0000E9
:1025A00000000000000001FF1FC03800001C3C00BC
:1025B00000780F80000003FE0FC03800001C3C00B4
:1025C00000783F8000000FFC07C03800001C3C0072
:1025D00000F8FF8000001FFC0FC03800001C3E0008
:1025E00000F8FF8000007FF80F803800001C1E00FC
:1025F00000F0F7800001FFF81F803800001C1F006A
:1026000001F007800007FFF01F803800001C1F004A
:1026100001E00780001FFFF03F803800001C0F0022
:1026200003E00780007FFFE07F803800001C0F8000
:1026300003E0078003FFFFC07F803800001C078095
:1026400003C007801FFFFE00FF803800001C0780CA
:1026500007C007803FFFF800FF803800001C07C05C
:10266000078007807FFFE001FF003800001C03C0E7
:10267000078007807FFFE001FF003800001C03E0B7
:102680000F8007807FFFC000FF003800001C01E0C2
:102690000F00078078000000FF003800001C01E0F8
:1026A0001F00078078000000FF003800001C01F0C8
:1026B0001E00078078000000FF003800001C00F0BA
:1026C0001E00078078000000FF003800001C00F8A2
:1026D0003E00078078000000FF003800001C00F872
:1026E0003C0007807FFFC000FF003800001C00781E
:1026F0007C0007807FFFE001FF003800001C007CA9
:102700007C0007807FFFE001FF003800001C003CD8
:10271000780007807FFFF001FF003800001C003EBA
:10272000F80007803FFFFC00FF803800001C003EDF
:10273000F000078007FFFFC07F803800001C001FEB
:10274000F000078000FFFFE07F803800001C001FC2
:10275000F0000780001FFFE03F803800001C000FE2
:10276000E00007800007FFF03F803800001C000FEA
:10277000E00007800001FFF81F803800001C000FF8
:10278000C000078000007FF80F803800001C0007A1
:10279000C000078000003FFC0FC03800001C00078D
:1027A000C000078000000FFC07C03800001C0003B9
:1027B00080000780000007FE07C03800001C0003EF
:1027C00080000300000001FE0FC03800001C000064
:1027D00000000000000000FF3F803800001C0000E7
:1027E000000000000000007FFF003800000E000025
:1027F000000000000000001FFC007800000FFFFF39
:10280000FFFFFFFFFFFFFF0FF03FF8000007FFFF94
:10281000FFFFFFFFFFFFFF87E0FFF0000003FFFF68
:10282000FFFFFFFFFFFFFFC383FFE000000000008A
:102830000000000000000000000000000000000098
:102840000000000000000000000000000000000088
:102850000000000000000000000000000000000078
:10286000000000000000000000000000000FF40362
:1028700007C28067F9FF3E0A0183E000001FF603EC
:102880001FE6C06FFBFF7F1B018FF00000180703DE
:102890003876E06C0300631B819C180000180783E6
:1028A0003006F06C0300619BC1980000001807C35C
:1028B0006006F86C0300619BE1B00000001806E3BD
:1028C0006006DC6C0300639B71B00000001FE673C0
:1028D00061E6CE6FF3FC7F1B39B0F0000018063BB9
:1028E00061F6C76C03007E1B1DB0F8000018061FC0
:1028F0006036C3EC0300671B0FB018000018060F0A
:102900003036C1EC0300639B0798180000180607D7
:102910001876C0EC0300619B038C3800001FF6039F
:102920000FE6C06FFBFE60DB0187F000000FF601D1
:1029300007C6C027F9FE60DB0083E000687474708E
:10294000733A2F2F6D61726C696E66772E6F7267A6
:10295000003530384420322E302E372E320001FF21
:10296000FFFFFFFFFFFFFFFFFFFFFFFF0FFFFFFF67
:10297000FFFFFFFFFFFFFFFFFFFF1E000000000043
:10298000000000000007FFFF38000000000000000A
:1029900000000003FFFF70000000000000000000C6
:1029A0000001FFFF600000000000000000000000C8
:1029B000FFFF6000000000000000000000007FFF3B
:1029C000C000000000000000007800003FFFC00FC2
:1029D000C0FC00000000007818001FFFC03FE1FFAE
:1029E0000000000000783C000FFFC07FF3FF800074
:1029F000000000783C0007FFC0FFFFFFC0000000A0
:102A000000783C0003FFC1F87F87E00000000078F9
:102A1000000001FFC1F03F03E0000000007800006B
:102A200000FFC1E01E01E01F0003E0783C03F07FDF
:102A3000C1E01E01E07FC00FF8783C07FC3FC1E019
:102A40001E01E1FFE01FFC783C0FFE1FC1E01E01EC
:102A5000E3FFF03FFE783C1FFE0FC1E01E01E3F3F1
:102A6000F83F3E783C3F3F07C1E01E01E7E0FC7CB9
:102A70001F783C3E1F07C1E01E01E7C07C7C0F7839
:102A80003C3C0F03C1E01E01E7807C780F783C3CA2
:102A90000F03C1E01E01E7803C7800783C3C0F0347
:102AA000C1E01E01E7803C7800783C3C0F03C1E0A8
:102AB0001E01E7803C7800783C3C0F03C1E01E011A
:102AC000E7C03C7800783C3C0F03C1E01E01E3E026
:102AD0003C78007C3C3C0F03C1E01E01E3FF3FF863
:102AE000007FBC3C0F03C1E01E01E1FF3FF8003F47
:102AF000BFFC0F03C1E01E01E0FF3FF8001FBFFC59
:102B00000F03C1E01E01E07F3FF8000FBFFC0F0381
:102B100060000000000000000000000000076000EE
:102B2000000000000000000000000006700000002F
:102B30000000000000000000000E3800000000004F
:102B4000000000000000001C1E000000000000004B
:102B50000000000000780FFFFFFFFFFFFFFFFFFFF7
:102B6000FFFFFFF001FFFFFFFFFFFFFFFFFFFFFF82
:102B7000FF802020506C616E6E65724275666665DE
:102B80007242797465733A20002046726565204D63
:102B9000656D6F72793A2000436F6D70696C656482
:102BA0003A204E6F7620203220323032300A002018
:102BB0004C61737420557064617465643A203230DE
:102BC00032302D31302D3135207C20417574686FC5
:102BD000723A2028563120456E67696E65657269C4
:102BE0006E672C205279616E2C2035303844290ACA
:102BF000003530384420322E302E372E320A004D28
:102C000061726C696E0020536F6674776172652023
:102C100052657365740A00205761746368646F6756
:102C20002052657365740A002042726F776E206FC0
:102C300075742052657365740A0020457874657256
:102C40006E616C2052657365740A00506F7765720F
:102C500055700A0073746172740A006175746F258F
:102C6000632E67004D31303031006572726F722013
:102C700077726974696E6720746F2066696C650A83
:102C800000446F6E6520736176696E672066696CBB
:102C9000652E0A004D323900456E6473746F70738F
:102CA000002553202563202563202563202563000C
:102CB000205A3A0020593A0020583A00656E647351
:102CC000746F7073206869743A20004D6F766520C8
:102CD00025736D6D004D6F766520302E316D6D0062
:102CE0004D6F766520316D6D004D6F76652031300A
:102CF0006D6D004D6F76652041786973004D6F767C
:102D000065205A004D6F76652059004D6F7665201D
:102D100058005072696E742066726F6D204D656444
:102D2000696100220A00556E6B6E6F776E20636FCB
:102D30006D6D616E643A2022005631434E4320355A
:102D40003038442052656164792E005072696E7487
:102D5000696E672E2E2E00204500205A0020590053
:102D6000204D39322058003B200020453A00205A9F
:102D70003A0020593A00583A00506C65617365205A
:102D80005265736574005052494E54455220484173
:102D90004C5445440025533A202553004B494C4C94
:102DA00045442E2000005072696E7465722068617F
:102DB0006C7465642E206B696C6C28292063616CCF
:102DC0006C6564210A0000002200250028002B0009
:102DD0002E003100340002010000050108010B0142
:102DE00000002100240027002A002D0030003300BD
:102DF00001010000040107010A0105050505070599
:102E000008080808020202020A0A08080404040466
:102E10000101010101010101030303030303030392
:102E2000040707070C0C0C0C0C0C0C0C0202020221
:102E300006060606060606060B0B0B0B0B0B0B0B0A
:102E400001021020200808102040102040800201BC
:102E500002010804020101020408102040808040A1
:102E600020100804020180040201804020100804A0
:102E7000020108040201010204081020408001023E
:102E8000040810204080DEB700BF11241FBECFEF22
:102E9000D1E2DEBFCDBF00E00CBF12E0A0E0B2E0A7
:102EA000ECE5FCE901E00BBF02C007900D92A23BEC
:102EB000B107D9F724E1A2EBB2E001C01D92A23420
:102EC000B207E1F717E1C4E4D7E100E006C02197BB
:102ED0000109802FFE010E948FCDC334D10780E00D
:102EE0000807A9F70E94FAB80C941CCE0C940000B5
:102EF0008F929F92AF92BF92CF92DF92EF92FF920A
:102F0000CF93DF9320911F02222399F1EC01F090DF
:102F10009C04F0FE16C08090210290902202A090A6
:102F20002302B0902402288139814A815B81C50146
:102F3000B4010E9481CC181624F488829982AA8256
:102F4000BB82F1FE16C0C0902502D0902602E09010
:102F50002702F09028022C813D814E815F81C701BC
:102F6000B6010E9481CC181624F4CC82DD82EE8258
:102F7000FF82DF91CF91FF90EF90DF90CF90BF90D5
:102F8000AF909F908F900895CF92DF92EF92FF9233
:102F9000FC01C080D180E280F38020E030E0A90114
:102FA000C701B6010E94A0C387FF68C0C701B60170
:102FB000905820E030E040E251E40E9406C420E056
:102FC00030E040EA50E40E9421CA20E030E040E2D4
:102FD00051E40E941BCB0E948DCB9B0160E220310B
:102FE000F7E23F0730F0C90160E177E20E9448CD87
:102FF000605D60937E04283E83E0380708F445C096
:10300000C90168EE73E00E9448CDCB016AE070E030
:103010000E9448CD805D80937F0480E22436310594
:1030200058F0C90164E670E00E9448CDCB016AE027
:1030300070E00E9448CD805D8093800480E22A3059
:10304000310558F0EAE0F0E0C901BF010E9448CD27
:10305000CB01BF010E9448CD805D80938104C901EE
:103060006AE070E00E9448CD805D809382048EE724
:1030700094E0FF90EF90DF90CF90089520E030E053
:1030800040E251E4C701B60198CF80E2C4CF9C0171
:1030900097FF26C0EE27FF27E81BF90B2D398FEF8E
:1030A00038070CF05DC08DE280937F04CF0164E6A9
:1030B00070E00E945CCDCB012AE030E0B9010E94B3
:1030C0005CCD805D80938004CF01B9010E945CCD0E
:1030D000CB01B9010E945CCD805D809381042AC040
:1030E000283E83E03807B4F1C90168EE73E00E941E
:1030F0005CCDCB01EAE0F0E0BF010E945CCD805DD9
:1031000080937F04C90164E670E00E945CCDCB012E
:10311000BF010E945CCD805D80938004C901BF0126
:103120000E945CCDCB01BF010E945CCD805D80938D
:103130008104F901CF016AE070E00E945CCD805DFE
:10314000809382048FE794E008958DE237FDC5CF28
:1031500080E2C3CFF90180E2243631050CF0A4CF20
:1031600080E280937F0480938004EA30F1056CF361
:103170008DE237FF80E280938004CF016AE070E047
:103180000E945CCD605D60938104D4CF9C0197FD6B
:103190002DC080E2243631055CF0C90164E670E0A0
:1031A0000E945CCDCB016AE070E00E945CCD805D46
:1031B0008093800480E22A3031055CF0EAE0F0E0A0
:1031C000C901BF010E945CCDCB01BF010E945CCD53
:1031D000805D80938104C9016AE070E00E945CCD4B
:1031E000805D8093820480E894E008953195219574
:1031F00031098DE2DDCF24E6829FC0011124815880
:103200009F4F6FEF70E00E945CCD262F81E3643604
:1032100009F080E280937F0490E22A3040F03AE0A7
:10322000822F632F0E942ECD0E942ECD905D909311
:103230008004822F6AE00E942ECD905D90938104DD
:1032400085E2809382048FE794E00895FC01A081D9
:10325000B1811C92A281B3818C918F5F8C9302808B
:10326000F381E02D90818CE0989F800D1124EBEA92
:10327000FEE013AE84AF0895CF93DF93EC01CB0152
:10328000BA010E94A7C329EC38EC48EC5EE30E9427
:103290001BCB20E030E040E05FE30E9421CA0E94A7
:1032A00094CB6883DF91CF9108950E94A7C329EC46
:1032B00038EC48EC5EE30E941BCB20E030E040E0BD
:1032C0005FE30E9421CA0E9494CB862F0C94FB18C6
:1032D000CF93DF93EC01CB01BA010E94A7C320E09A
:1032E00030E0A9010E9421CA0E948DCB79836883B6
:1032F000DF91CF9108950E94A7C320E030E0A9019B
:103300000E9421CA0E948DCBCB010C94C6188091DB
:103310007E07811104C080913B048093ED070895DE
:103320008091FC0F8823C1F081508093FC0FE5E66B
:10333000FEE0882351F08150990B2BE1289FF0018A
:10334000299FF00D1124E251F14F8BE1AAE4BEE078
:1033500001900D928A95E1F72091FC0F211105C093
:103360008091061080628093061081E090E0A0E0DA
:10337000B0E0211103C080E090E0DC0180936C0795
:1033800090936D07A0936E07B0936F071092640738
:1033900081E080937C0783E0809340020895CF937F
:1033A000DF93EC01CB01BA010E94A7C320E030E01B
:1033B00040E251E40E941BCB20E030E0A9010E94D2
:1033C00021CA688379838A839B83DF91CF91089593
:1033D000CF93DF93EC01CB01BA010E94A7C320E099
:1033E00030E048EC52E40E941BCB20E030E0A90121
:1033F0000E9421CA688379838A839B83DF91CF915E
:103400000895CF93DF93EC01CB01BA010E94A7C3CB
:103410002AE037ED43E25DE30E941BCB20E030E081
:10342000A9010E9421CA0E9494CB688379838A8370
:103430009B83DF91CF910895CF93DF93EC01CB0174
:10344000BA010E94A7C320E030E0A9010E9421CA6E
:10345000688379838A839B83DF91CF910895CF938B
:10346000DF93EC01CB01BA010E94A7C320E030E05A
:10347000A9010E9421CA688379838A839B83DF9193
:10348000CF910895CF93DF93EC01CB01BA010E9455
:10349000A7C32AE037ED43E25DE30E941BCB20E0A7
:1034A00030E0A9010E9421CA688379838A839B83C3
:1034B000DF91CF910895CF93DF9300D01F92CDB7C6
:1034C000DEB70E9494CB0E94A5C369837A838B8365
:1034D0009C83CE0101960E94C4170F900F900F900D
:1034E0000F90DF91CF9108950E94A7C32AE037ED96
:1034F00043E25DE30E941BCB20E030E0A9010E9483
:1035000021CA0C945B1A8F929F92AF92BF92CF9276
:10351000DF92EF92FF92CF936B017C0120E030E0CD
:10352000A9010E94A0C387FD9FC06DEB77E386E0F1
:1035300095E3A70196010E9421CA6B017C0120E05E
:1035400030E040E251E40E9406C420E030E048EC64
:1035500052E40E9406C44B015C0120E030E0A90166
:10356000C701B6010E94A0C320E030E040EA50E469
:1035700087FF04C020E030E040EA50ECC501B40110
:103580000E9421CA20E030E040E251E40E941BCBBF
:103590000E948DCB6B017C018BE2F7FE09C0F09499
:1035A000E094D094C094C11CD11CE11CF11C8DE2AC
:1035B00080937C04C701B60120E137E240E050E08F
:1035C0000E9470CD8AE0882E912CA12CB12CCA01CA
:1035D000B901A50194010E9470CD605D60937D04E6
:1035E000C701B60128EE33E040E050E00E9470CD04
:1035F000CA01B901A50194010E9470CD605D60937C
:103600007E04C701B60124E630E040E050E00E94AD
:1036100070CDCA01B901A50194010E9470CD605D11
:1036200060937F048EE280938004C701B601A501F8
:1036300094010E9470CDC62FCA01B901A501940161
:103640000E9470CD605D60938104C05DC093820470
:103650008CE794E0CF91FF90EF90DF90CF90BF90F8
:10366000AF909F908F9008956DEB77E386E095EB98
:1036700060CF0E94A7C320E030E048EC52E40E94F3
:103680001BCB20E030E0A9010E9421CA0C94831AD0
:103690008F929F92AF92BF92CF92DF92EF92FF9262
:1036A000CF936B017C0120E030E0A9010E94A0C310
:1036B00087FDAAC06DEB77E386E095E3A70196014D
:1036C0000E9421CA6B017C0120E030E0A9010E9428
:1036D000A0C387FF9EC0C701B601905820E030E02C
:1036E00040E251E40E9406C420E030E040E251E4B0
:1036F0000E9406C420E030E040EA50E40E9421CA63
:1037000020E030E040E251E40E941BCB0E948DCBD0
:103710006B017C0180E280937C0460E280E1C8164A
:1037200087E2D806E104F1048CF0C701B60120E17C
:1037300037E240E050E00E9470CDCA01B9012AE0B2
:1037400030E040E050E00E9470CD605D60937D0409
:1037500060E288EEC81683E0D806E104F1048CF03C
:10376000C701B60128EE33E040E050E00E9470CD82
:10377000CA01B9012AE030E040E050E00E9470CD7B
:10378000605D60937E0460E284E6C816D104E104C3
:10379000F1048CF0C701B60124E630E040E050E0CF
:1037A0000E9470CDCA01B9012AE030E040E050E04B
:1037B0000E9470CD605D60937F048AE0882E912C1A
:1037C000A12CB12CC701B601A50194010E9470CDB6
:1037D000C62FCA01B901A50194010E9470CD605D98
:1037E000609380048EE280938104C05DC093820464
:1037F0008CE794E0CF91FF90EF90DF90CF90BF9057
:10380000AF909F908F9008956DEB77E386E095EBF6
:1038100055CF20E030E040E251E4C701B60162CF6D
:103820000E94A7C320E030E040E251E40E941BCB9D
:1038300020E030E0A9010E9421CA0C94481BCF92DD
:10384000DF92EF92FF92CF93DF9300D01F92CDB71C
:10385000DEB76B017C0120E030E0A9010E94A0C32B
:1038600087FD1BC06DEB77E386E095E3A70196012A
:103870000E9421CA69837A838B839C83CE0101963F
:103880000E94C4170F900F900F900F90DF91CF916F
:10389000FF90EF90DF90CF9008956DEB77E386E097
:1038A00095EBE4CF0E94A7C320E030E0A9010E947D
:1038B00021CA0C941F1C0E94A7C32AE037ED43E2E3
:1038C0005DE30E941BCB20E030E0A9010E9421CAE9
:1038D0000C941F1CCF92DF92EF92FF926B017C0140
:1038E00020E030E0A9010E94A0C387FD26C06DEB57
:1038F00077E386E095E3A70196010E9421CA6B0158
:103900007C0120E030E0A9010E94A0C320E030E06B
:1039100040E05FE387FF04C020E030E040E05FEB81
:10392000C701B6010E9421CA0E948DCBCB01FF9036
:10393000EF90DF90CF900C94C6186DEB77E386E0A4
:1039400095EBD9CF0E94A7C320E030E0A9010E94E7
:1039500021CA0C946A1CFC0184910895FC018081A9
:1039600008950F931F93522F2091A90E3091AA0E04
:103970002817390721F19093AA0E8093A90E8B0185
:1039800030E020E000936C0710936D0720936E07E2
:1039900030936F074093640750936507835D9644A7
:1039A00021F410927B041092320482E08093400252
:1039B00081E080937C0710923404109233041F91AD
:1039C0000F91089521E020937B0460930F02709380
:1039D0001002809311029093120220E040E070E008
:1039E00060E080915E0790915F070C94B11C6DECD4
:1039F0007CEC8CEC9CE30C94E21C6DEC7CEC8CEC91
:103A00009DE30C94E21C60E070E080E89FE30C947E
:103A1000E21C60E070E080E291E40C94E21C809192
:103A2000830E9091840E891B8F7051F48091AC07A6
:103A3000813031F08091061082FB882780F908954B
:103A400081E0089511989091020187FD9095917001
:103A5000909300010000000000000000119A000097
:103A600000000000000011989091020186FD9095E1
:103A70009170909300010000000000000000119A76
:103A8000000000000000000011989091020185FDE7
:103A900090959170909300010000000000000000DC
:103AA000119A00000000000000001198909102019E
:103AB00084FD90959170909300010000000000003B
:103AC0000000119A00000000000000001198909181
:103AD000020183FD90959170909300010000000019
:103AE00000000000119A0000000000000000119882
:103AF0009091020182FD90959170909300010000D9
:103B0000000000000000119A00000000000000000A
:103B100011989091020181FD909591709093000110
:103B20000000000000000000119A000000000000EA
:103B300000001198809102018170809300010000C3
:103B4000000000000000119A0000000000000000CA
:103B50000895089590E080E00895CF93DF93DB010E
:103B6000F9019C919130C1F0943080F094509C9375
:103B70008830D1F480819181009771F00197918311
:103B80008083480F591FEA01188206C08C3539F42A
:103B90009C5F9C93943041F4DF91CF9108958B33D7
:103BA00039F781E08C93F8CF20813181B9016F5FC3
:103BB0007F4F71836083420F531FEA0188838081A6
:103BC00091818F3591056CF7E7CF9091D505E92F5D
:103BD000F0E0E751F14F80839F5F943040F4909381
:103BE000D50580915A078F5F80935A0708951092E8
:103BF000D505F7CF282F90915703833021F495FDF9
:103C00000FC094FD0FC0892F90E0B0E0A0E004C089
:103C1000B695A795979587952A95D2F781700895BF
:103C200081E0089580E008952FEB280F2A3108F0F5
:103C300047C0E22FF0E08091730390917403A0914C
:103C40007503B091760304C0B695A79597958795AF
:103C50002A95D2F780FD02C081700895E75AFC4F83
:103C6000E081EE2341F18091820790918307E80F74
:103C7000F92FF11D808190ED980F9A3030F08E323F
:103C800051F4818180538A3098F4F0935203E09389
:103C9000510381E008958D3211F08B3249F4818116
:103CA00090ED980F9A3088F38E3211F48281EACF2A
:103CB000F0E0E0E0EACF1092520310925103E9CF16
:103CC00080E008950E94141E882341F081E0209135
:103CD000510330915203232B09F480E008956F9231
:103CE0007F928F929F92AF92BF92CF92DF92EF928C
:103CF000FF920F931F93CF93DF93CDB7DEB76897F3
:103D00000FB6F894DEBF0FBECDBF4A015B0139018B
:103D1000E82EF12C20E030E0A901B801C3010E9497
:103D2000A0C36701CC0CDD1CCC0CDD1C811109C0CB
:103D3000F601E050F04F85919591A591B4918C01D9
:103D40003D01C801D3018D8B9E8BAF8BB88FF701DE
:103D5000E75BFF4EE491662463941E160CF4612C1D
:103D60007724739420E030E0A901C501B4010E94DA
:103D700081CC18160CF0712C80E00E94C4B56983C8
:103D80007A838B839C8381E00E94C4B56D837E839C
:103D90008F83988782E00E94C4B569877A878B8772
:103DA0009C8783E00E94C4B56D877E878F87988B40
:103DB00081E090E08C0F9D1FC80ED91EF601108285
:103DC0001182128213829E01235F3F4FAE01475F33
:103DD0005F4FBE016B5F7F4FCE0101960E9466ADC3
:103DE000F60180829182A282B382198A1A8A1B8A82
:103DF0001C8A8091AE0D9091AF0D892B91F4CE016C
:103E000041967C018E010B5E1F4F9E01235F3F4F49
:103E1000AE01475F5F4FBE016B5F7F4F40970E94CF
:103E2000B0730E9456AD671431F080915B07882310
:103E3000B9F010925B0768960FB6F894DEBF0FBE1C
:103E4000CDBFDF91CF911F910F91FF90EF90DF9049
:103E5000CF90BF90AF909F908F907F906F9008957C
:103E600060E086EE9FE00E941F88E5CF0F931F93CE
:103E70008C0129EB37E045EB57E061EB77E08DEA09
:103E800097E00E94917F1F910F9108950F931F93C8
:103E90008091AC07813019F50E944084009188041C
:103EA0001091890420918A0430918B04601B710B5E
:103EB000820B930B28EE33E040E050E00E94E4C90F
:103EC00060918404709185048091860490918704A8
:103ED000620F731F841F951F1F910F9108956091AA
:103EE0008C0470918D0480918E0490918F04D6CFB4
:103EF0000F931F930E9440840091C1051091C20549
:103F00002091C3053091C405011511052105310526
:103F1000D9F52091970E2223A1F1E091950E215021
:103F20002093970E21E02E0F2093950E3091980E3E
:103F3000231302C01092950E24E0E29FF001112499
:103F4000E756F14F00811181228133810093BD0535
:103F50001093BE052093BF053093C005600F711FFD
:103F6000811D911D6093C1057093C2058093C305A7
:103F70009093C4058091BF059091C005892B09F0ED
:103F8000409A1F910F910895601B710B820B930B48
:103F900097FDF7CF40981092C1051092C20510927C
:103FA000C3051092C405EDCF0F931F93CF93DF93FA
:103FB0008C01EB019091970E2091980E921305C001
:103FC0000E94781F0E942B9BF5CF8091960E34E0C3
:103FD000839FF0011124E756F14F11830083D383AF
:103FE000C2839F5F9093970E8F5F281739F080935D
:103FF000960EDF91CF911F910F9108951092960E1A
:10400000F8CF63E972E084E690E00E94D41F6AEB87
:1040100072E084E690E00C94D41F81110C9401208E
:1040200068EB71E084E190E00C94D41F0E94C1A77A
:104030000C940D200E94AEB50C940D200E9491AFFF
:104040000C940120CF93DF93CDB7DEB720E24885F3
:1040500059856F818E810E944E81DF91CF910895A5
:1040600064E578E382E00C94FFB569E578E381E0EC
:104070000C94FFB56EE578E380E00C94FFB50C94EA
:1040800063AE0C9463AE0C9463AE0C94D0AC0C9401
:10409000D0AC0C94D0AC80914002882341F0609168
:1040A00071047091720441E081E00C94F3800895F2
:1040B000AF92BF92CF92DF92EF92FF920F931F9336
:1040C000CF93DF936B01E9014A3009F4C1C0453158
:1040D00009F073C0DB011296ED91FC91F280C6816C
:1040E000D78180910201809582708093000188E2DF
:1040F0008A950000E9F7BF2CB29420EFB22230E19C
:10410000A32EAF0C48E2E42E88EF0E94221D8E2DD4
:104110008A950000E9F7BFE1BF1508F485C08F2D2F
:10412000807780680E94221D8B2D0E94221D8E2D7B
:104130008A950000E9F780E80E94221D80E00E9435
:10414000221D8E2D8A950000E9F78AEF0E94221D1C
:104150008E2D8A950000E9F78E01005F1F4F888140
:10416000807F0E94221D89918295807F0E94221D5E
:10417000C017D107A1F78E2D8A950000E9F7F394B7
:10418000E0E1BE0EFA10C0CF8091020182708093F0
:104190000001D6011296CD91DC91CE010E94DF85FF
:1041A0008111F2C1DF91CF911F910F91FF90EF909C
:1041B000DF90CF90BF90AF900895FB0102811381F3
:1041C000423309F49CC108F4A0C1463409F48DC1FE
:1041D000473409F490C14B3329F589812B81D801EB
:1041E00012966C91129713964C91213009F4E3C109
:1041F000233009F0ADC138EF380F582F91E0431745
:1042000008F490E041E0531708F040E031E0561721
:1042100008F430E0592F542B352309F0C1C1942301
:1042200009F0BEC181E0BECF80EE8F0D8068807F37
:104230000E94221D8F2D8295807F0E94221D8E2D2F
:104240008A950000E9F780E80E94221D80E877CF78
:10425000809101018260809301018091020182704E
:104260008093000180910101816080930101809120
:104270000201817080930001099A119A80910201D4
:10428000809582708093000188E28A950000E9F7AA
:1042900088E790E0CEE9DFE0FE013197F1F7019782
:1042A000D9F788EF0E94221D18E2812F8A9500001D
:1042B000E9F780E20E94221D80E00E94221D812FEA
:1042C0008A950000E9F780E00E94221D80E80E94A4
:1042D000221D812F8A950000E9F780E00E94221DAF
:1042E00080E10E94221D812F8A950000E9F7CE010E
:1042F0000197F1F7CE010197F1F7CE010197F1F7A0
:10430000CE010197F1F7CE010197F1F7CE010197A8
:10431000F1F7CE010197F1F7CE010197F1F7CE0148
:104320000197F1F7CE010197F1F7CE010197F1F76F
:10433000CE010197F1F7CE010197F1F7CE01019778
:10434000F1F72197F1F780E20E94221D80E40E949C
:10435000221D812F8A950000E9F780E20E94221D2C
:1043600080E60E94221D1A950000E9F700E010E0A7
:10437000D8E2812F807780680E94221D802F0E94C2
:10438000221D8D2F8A950000E9F780E80E94221DEA
:1043900080E00E94221D8D2F8A950000E9F78AEFA8
:1043A0000E94221D8D2F8A950000E9F7C0E2119826
:1043B00080910201817080930001000000000000E4
:1043C0000000119A00000000000000001198809188
:1043D00002018170809300010000000000000000D5
:1043E000119A000000000000000011988091020165
:1043F0008170809300010000000000000000119A0D
:1044000000000000000000001198809102018170FE
:10441000809300010000000000000000119A0000DD
:1044200000000000000011988091020181708093CB
:1044300000010000000000000000119A00000000D0
:1044400000000000119880910201817080930001AA
:104450000000000000000000119A000000000000B1
:10446000000011988091020181708093000100008A
:10447000000000000000119A000000000000000091
:10448000119880910201817080930001000000006A
:1044900000000000119A000000000000000080E011
:1044A0000E94221D8D2F8A950000E9F7C15009F066
:1044B0007ECF88EF0E94221D8D2F8A950000E9F79C
:1044C0001F5F005F103209F054CF80E00E94221D70
:1044D00080EC0E94221DDA950000E9F7809102012C
:1044E00082708093000181E05DCED80115968C9199
:1044F000888381E057CEF80181818883FACFB901A2
:10450000C8010E94C98581E04DCE443171F0473128
:1045100009F088CE1882F8018281898385818150D3
:104520008A8383818B8381E03DCED80115964C919F
:10453000159750E0440F551F70E060E016968D917E
:104540009C910E94BDCDC8010E94F58581E02ACED4
:10455000481708F467CE861708F464CEFA80E12C79
:10456000D12C243070F41DC0BE01C8010E94C98541
:10457000898198819D0D98838E0D8983FF0C09F4A4
:1045800051CEF7FEF6CFF0CF4D8150E0440F551FCE
:1045900070E060E08E819F810E94BDCD81E002CEFF
:1045A000FA8030E0F901E15AFD4FD080255A3D4FA5
:1045B000F901E080E6CF58E0580F382F1FCEDF9288
:1045C000EF92FF920F931F93CF93DF93EC01D62EC0
:1045D0001CAD0BAD7C0184E0E80EF11CE98DFA8D79
:1045E000C7011995412F480F2D2D602FC7010E943B
:1045F000F5889BAD890F8BAF81E090E0DF91CF9183
:104600001F910F91FF90EF90DF9008959F92AF92CE
:10461000BF92CF92DF92EF92FF920F931F93CF93AF
:10462000DF93EC018B01942EA52E8A859B8586173E
:10463000970731F0888199810E949D881B870A879E
:1046400088859985019649F5BC800A818E81080F7D
:10465000C880D980D6015596ED91FC91C601199577
:10466000B80EE92CFA2C10E0F70121917F012111FD
:1046700027C08E819F81810F911D9F838E8390E043
:1046800080E0DF91CF911F910F91FF90EF90DF902D
:10469000CF90BF90AF909F9008950E811F81692D9C
:1046A0007A2D888199810E94BF80800F912F911D62
:1046B000288539852817390738F681E090E0E1CF61
:1046C0004B2D602FC6010E94F588080F180FCCCF24
:1046D000EF92FF920F931F93CF93DF93EC018B0127
:1046E0007A018A859B858617970731F088819981A1
:1046F0000E949D881B870A87B701888199810E9443
:10470000BF802E813F81820F932F911D9F838E83C7
:1047100090E080E0DF91CF911F910F91FF90EF909B
:104720000895CF92DF92EF92FF920F931F93CF9352
:10473000DF93CDB7DEB72C970FB6F894DEBF0FBE70
:10474000CDBFF090E60EE090E70E20913F042111DE
:104750001DC049E65BE06E2D8F2D0E94618990E0BF
:1047600080E0F80EF092E60EE092E70E99272C9684
:104770000FB6F894DEBF0FBECDBFDF91CF911F9172
:104780000F91FF90EF90DF90CF900895C090B30EFF
:10479000D090B40E2FEA3EE03A8329832F2D30E0EB
:1047A0003C832B832E2D30E03E832D8318861F8281
:1047B0007A8769871C861B8606E013E29E012F5FBD
:1047C0003F4F4BEA5CE1BC01C6010E942773B60172
:1047D0008FEA9EE00E949D888F819885C2CF80914C
:1047E000510390915203009731F04AE050E070E09D
:1047F00060E00C94C4C160E070E0CB01089580914A
:10480000510390915203009731F04AE050E070E07C
:1048100060E00C9496C060E070E0CB0108950E94C7
:10482000FF2397FD0CC00E94FF236F3F7105810598
:10483000910509F034F40E94FF23862F089580E04B
:1048400008958FEF0895CF93DF93D82FC62F0E943E
:10485000621E882391F08091510390915203892B1D
:1048600029F4C1E08C2FDF91CF9108950E940F248D
:10487000C1E08111F7CFC0E0F5CF8D2F0E94141E4B
:10488000882381F3EECF0F931F93CF938091510331
:10489000909152030097E9F0FC018F01C1912C2FF8
:1048A0002F7D81F0C53411F0C536B9F7F8011082BB
:1048B00070E060E00E9438BFF801C083CF911F9183
:1048C0000F91089570E060E0CF911F910F910C94CB
:1048D00038BF60E070E0CB01F1CF8F929F92AF9232
:1048E000BF92CF92DF92EF92FF920F931F93CF93DD
:1048F0008DE9E82E84E0F82E0DEA17E09DEBC92E35
:1049000097E0D92EC0E088E58C0F0E94621E8823B4
:1049100009F47CC00E9443244B015C018C2F0E944F
:10492000FA1D882309F468C0F80120813181428191
:104930005381C501B4010E9421CAF70160837183CC
:1049400082839383CF5FF4E0EF0EF11C0C5F1F4F67
:1049500084E0C80ED11CC330B1F685E40E94621E0B
:10496000882309F45EC00E9443246B017C0183E02C
:104970000E94FA1D882371F02091B9073091BA077F
:104980004091BB075091BC07C701B6010E9421CAE4
:104990006B017C01C092A904D092AA04E092AB04FE
:1049A000F092AC0486E40E94621E8823C9F00E9443
:1049B000432420E030E0A9010E9481CC181684F441
:1049C0000E94432420E030E040E752E40E941BCBE9
:1049D0006093020270930302809304029093050295
:1049E000CF911F910F91FF90EF90DF90CF90BF90EC
:1049F000AF909F908F900895F60120813181428180
:104A00005381C501B4010E9420CA97CFF80180816B
:104A10009181A281B381F70180839183A283B383C3
:104A200091CF8091B9079091BA07A091BB07B0913F
:104A3000BC078093A9049093AA04A093AB04B093FD
:104A4000AC04B0CF2F923F924F925F926F927F92C1
:104A50008F929F92AF92BF92CF92DF92EF92FF928E
:104A60000F931F93CF93DF93CDB7DEB76C970FB63D
:104A7000F894DEBF0FBECDBF8C015B015A83498322
:104A8000FC01EA5BFF4F20813181428153812987FC
:104A90003A874B875C87CA01B9010E94A5C36B01A5
:104AA0007C01D5012D913D914D915C910E9406C4F0
:104AB0000E94FFCA2B013C01E981FA8120813181EA
:104AC00042815381C701B6010E9406C40E94FFCAF9
:104AD0004B015C01C301B2010E9494CB698B7A8BBC
:104AE0008B8B9C8B683771058105910540F428E715
:104AF00030E040E050E0298B3A8B4B8B5C8BC5015A
:104B0000B4010E9494CB6D877E878F87988B68371E
:104B100071058105910540F448E750E060E070E0E0
:104B20004D875E876F87788BF801EE5AFF4F408084
:104B3000518062807380C301B2010E94A7C3698360
:104B40007A838B839C8369897A898B899C890E946B
:104B5000A5C36D8B7E8B8F8B988F20E030E0A901F1
:104B600069817A818B819C810E94A0C3882309F48A
:104B7000E1C1A7019601C701B6010E9406C44B011D
:104B80005C012D893E894F89588DCA01B9010E9467
:104B900006C49B01AC01C501B4010E9420CA4B01AF
:104BA0005C0129813A814B815C81CA01B9010E9473
:104BB00021CA9B01AC01C501B4010E941BCB0E941C
:104BC000FFCA0E9494CB6D837E838F83988766276C
:104BD0007727CB0164197509860997090E94A7C335
:104BE0004B015C016D857E858F8598890E94A5C3E8
:104BF0002B013C0120E030E0A901C501B4010E9475
:104C0000A0C3882309F49AC1A3019201C301B20190
:104C10000E9406C4698F7A8F8B8F9C8FA7019601A3
:104C2000C701B6010E9406C49B01AC01698D7A8D53
:104C30008B8D9C8D0E9420CA6B017C01A501940183
:104C4000C501B4010E9421CA9B01AC01C701B60194
:104C50000E941BCB0E94C3CBD80195968D909D904E
:104C6000AD90BC909897750164012D813E814F8174
:104C70005885C21AD30AE40AF50A0E9494CBC61AD0
:104C8000D70AE80AF90AF7FE8EC02D893E894F89B6
:104C9000588DCA01B9010E9406C46B017C012981AB
:104CA0003A814B815C81CA01B9010E9421CA69879E
:104CB0007A878B879C8720E030E0A90169817A811F
:104CC0008B819C810E94A0C3882309F43BC1C5014C
:104CD000B4010E94A5C329853A854B855C850E9455
:104CE00006C4A70196010E9420CA6D837E838F832C
:104CF0009887A3019201C301B2010E9406C49B01DF
:104D0000AC016D817E818F8198850E9421CA2B0123
:104D10003C0120E030E040E850E469817A818B81F9
:104D20009C810E9406C49B01AC01C301B2010E9498
:104D30001BCB0E94FFCA2B013C0120E030E0A901FF
:104D40000E9481CC18161CF0412C512C3201C30159
:104D5000B2010E9494CB6D837E838F8398878616E1
:104D60009706A806B90620F48D829E82AF82B88687
:104D70006D817E818F8198850E94A5C329853A85A2
:104D80004B855C850E9406C4A70196010E9421CA3A
:104D90000E94CFCC0E9494CB69877A878B879C87AF
:104DA000C12CD12C760169857A858B859C852989D2
:104DB0003A894B895C89621B730B840B950B0E94AB
:104DC000A5C329813A814B815C810E941BCB20E0E5
:104DD00034E244EF59E40E9406C40E9494CB4B0194
:104DE0005C0169857A858B859C852D853E854F85FF
:104DF0005889621B730B840B950B0E94A5C32981F4
:104E00003A814B815C810E941BCB20E034E244EF6D
:104E100059E40E9406C40E9494CB2B013C013FE65A
:104E200083169104A104B10408F090C0F401EE0FC0
:104E3000FF1FEE0FFF1FE45BFF4E85919591A5913B
:104E4000B4918983292E3A2EBD8B4FE64416510426
:104E50006104710408F083C0F201EE0FFF1FEE0F32
:104E6000FF1FE45BFF4E45915591659174919A0146
:104E7000CB014D815E816F817885D80199964D93E4
:104E80005D936D937C939C974C0D5D1D6E1D7F1DF6
:104E9000F80145A756A767A770ABE65BFF4F4989A6
:104EA0005A896B897C894083518362837383D59649
:104EB0008D929D92AD92BC92D897F80141AE52AEC0
:104EC00063AE74AEFD9649814083218232825D8952
:104ED00053833496208331838283938369857A85D3
:104EE0008B859C85D1966D937D938D939C93D49760
:104EF0003D962D853E854F85588920833183428399
:104F000053836C960FB6F894DEBF0FBECDBFDF9112
:104F1000CF911F910F91FF90EF90DF90CF90BF90B6
:104F2000AF909F908F907F906F905F904F903F9049
:104F30002F90089560E070E0CB0141CE60E070E01A
:104F4000CB0188CE60E070E0CB01F3CEC501B401A7
:104F50000E94C4AB6983272E382E9D8B76CFC30168
:104F6000B2010E94C4AB9B0184CF0F931F93809129
:104F7000830E9091840E891B8F7009F449C0909123
:104F8000800E992361F0833040F48FEF890F29F070
:104F90008093800E90E080E038C01092800E809167
:104FA000840E2BE5829FC00111248250984FFC0192
:104FB000208120FDEFCF4091E9075091EA076091F1
:104FC000EB077091EC07E95AFF4F008111812281B4
:104FD0003381401B510B620B730B4093E9075093D5
:104FE000EA076093EB077093EC072091840E2F5F24
:104FF0002F702093810E3091840E2091820E3213F7
:1050000004C02091810E2093820E1F910F9108956C
:105010000E94C2ACBFCF90916F0081E091FD02C0B1
:1050200080E0089590916F009D7F90936F000895A8
:10503000EFE6F0E08081826080830895CF92DF9276
:10504000EF92FF92CF93DF93C82F0E940B2894E03A
:10505000C99FE0011124FE01ED5CFA4FC080D180B0
:10506000E280F38081110E941828C251D84FC701F5
:10507000B6010E94A7C3288139814A815B810E94C1
:1050800006C4DF91CF91FF90EF90DF90CF9008950D
:10509000CF93DF9324E0829FC0011124EC01C3541D
:1050A000D84FFC01E753FA4F80579B4FDC012D91FD
:1050B0003D914D915C9160817181828193810E94CB
:1050C00021CA688379838A839B83DF91CF91089576
:1050D000CF93DF93CDB7DEB760970FB6F894DEBFFE
:1050E0000FBECDBFEDEAF7E080819181A281B3814F
:1050F00089839A83AB83BC8384819581A681B781A0
:105100008D839E83AF83B88780859185A285B38583
:1051100089879A87AB87BC8784859585A685B7855F
:105120008D879E87AF87B88B9E01235F3F4FAE016F
:10513000475F5F4FBE016B5F7F4FCE0101960E94BC
:1051400066AD60960FB6F894DEBF0FBECDBFDF919F
:10515000CF910895CF93DF93CDB7DEB72C970FB6DD
:10516000F894DEBF0FBECDBF0E94EB7F0E940B28DC
:105170009CE0EFE3F5E0DE01119601900D929A9527
:10518000E1F781110E941828CE0101960E94359BFB
:105190002C960FB6F894DEBF0FBECDBFDF91CF9136
:1051A000089580912A0590912B05659B94C081609C
:1051B00090932B0580932A0580912A0590912B05C9
:1051C000649B8BC0806890932B0580932A05209167
:1051D000030180912A0590912B0521FF80C08260F8
:1051E00090932B0580932A052091030180912A0535
:1051F00090912B0520FF75C0926090932B058093B2
:105200002A0580912A0590912B054B996CC08460EA
:1052100090932B0580932A058091310580FF1EC055
:105220008091C70580FF1AC020912A0530912B0577
:10523000A9014170552782E027FF80E0842B71F09F
:1052400090915B07916090935B0790912C05992357
:1052500011F0833019F480E00E94699B8091310540
:10526000869580FF20C08091C705869580FF1BC072
:1052700020912A0530912B05C9019695879581705B
:1052800092E031FF90E0892B71F090915B07926082
:1052900090935B0790912C05992311F0833019F4BA
:1052A00081E00E94699B809131058695869580FFFB
:1052B0001CC08091C7058695869580FF16C0809199
:1052C0002A0582FF12C080915B07846080935B0790
:1052D00082E00C94699B8E7F6BCF8F7774CF8D7F2C
:1052E0007FCF9D7F8ACF8B7F93CF08951092AC079D
:1052F000109288041092890410928A0410928B04F0
:1053000010928C0410928D0410928E0410928F04CF
:1053100010928404109285041092860410928704DF
:1053200008958091AC078130F1F08230C9F40E9479
:10533000461F609384047093850480938604909341
:10534000870481E08093AC070E94408460938804C6
:105350007093890480938A0490938B0481E008956C
:105360000E947629EECF80E008958091AC078150AD
:10537000823070F41092AC070E94408460938C04D9
:1053800070938D0480938E0490938F0481E0089530
:1053900080E008950F931F93CF93DF938C016F3FAD
:1053A00019F41092FF0D60E02091FF0D862F062E5C
:1053B000000C990B2817190609F0F4F46093FF0DFF
:1053C000C8010E94EDC2800F911FEC01C01BD10BE0
:1053D000CB32D1053CF00197FC012491207C203890
:1053E000D1F3F3CFDD27AE01B80180E09EE00E944B
:1053F0000EC3C050D24F1882DF91CF911F910F91F1
:105400000895CF93DF93CDB7DEB78E819091FF0DD6
:10541000891768F08093FF0D9E01275F3F4F4F81F2
:1054200058856AE270E080E09EE00E9467C3DF91E9
:10543000CF9108950F931F930E94408400916C04B4
:1054400010916D0420916E0430916F04601B710BFC
:10545000820B930B97FD0CC086B186FB882780F9E1
:1054600091E08927349B8260329B846080936B0437
:1054700080916B04817090916B0491FD826090919A
:105480006A04981749F0813009F148F0823079F0C8
:10549000833091F080936A041F910F9108959130A9
:1054A00079F09230B9F79091690491500CC099232A
:1054B00039F09330C1F3EECF9130A9F3923051F728
:1054C000909169049F5F90936904E4CF992359F305
:1054D000933001F7F5CF81E080933F04EBE2FEE0EB
:1054E0008DED9EE091838083138212823E98469ACE
:1054F0003C98449A3A98429A0E941A2A1092690457
:105500000895E0913204E63010F581E08E0F80932B
:10551000320440916C0750916D0760916E07709155
:105520006F07909164078091650728E0E29FF00182
:105530001124EE5FFB4F2091A90E3091AA0E31830A
:10554000208342835383648375839683878308957E
:10555000CF93DF93EC010E94812A20E040E070E0CD
:1055600060E0CE01DF91CF910C94B11C20E040E0CF
:1055700070E060E083ED96E40C94B11CCF930E9440
:1055800091AF0E94C1A7C82F882319F080E00E9424
:1055900021A68C2F0E940D20CF910C94B62A109238
:1055A0007004809106108064809306100E94B529D3
:1055B00060E08DE79FE00E94CA290C94B62A84E837
:1055C00097E00E94EF890E94B62A0C948B80E091AC
:1055D0003204EE2389F0E150E093320488E0E89F42
:1055E000F0011124EE5FFB4F6281738127814681B8
:1055F000808191810C94B11C0C94B62ACF93809138
:105600007304811109C08FE89FE090937204809326
:10561000710481E0809373040E94812A20E040E0BD
:1056200070E060E08BE490E20E94B11CC1E0C093A6
:105630007B040E9456AD0E94E72AC0937B0460E081
:1056400084E397E10E94CA298BE89FE09093D805F4
:105650008093D705CF9108959F92AF92BF92CF923A
:10566000DF92EF92FF920F931F93CF93DF930E94ED
:105670003182C09164079C2E85E0C82ECC0E9DE837
:10568000A92E9EE0B92ED6E0DC1B15E01C1B04E021
:105690000C1B83E0F82EFC1A82E0E82EEC1A81E065
:1056A000D82EDC1AC11133C0809166078823B9F067
:1056B00080914002882361F0692D619581E090918D
:1056C0006607911180E024E043EC5EE00E944E8189
:1056D000CF5FCC11E7CF87E0809365070CC0809146
:1056E0005D0710925D07882319F30E94E72A8091D5
:1056F0007C078823E9F2DF91CF911F910F91FF90F2
:10570000EF90DF90CF90BF90AF909F900895C13001
:1057100011F580916607813079F0809140028823ED
:10572000B9F281E090916607913009F080E023E0C2
:1057300043EF5CE26D2DCACF80915D0710925D074B
:10574000882359F383E09BE30E94A82A80917C0779
:10575000882319F3D0CFC23009F09BC0909166071F
:10576000923071F080914002882309F4B1CF81E03A
:10577000923009F080E020E245EB5EE06E2DA6CF8E
:1057800080915D0710925D07882361F32FEB3EE067
:105790003093D8052093D70580917C07882311F397
:1057A000AACF90916607933071F0809140028823D0
:1057B00009F48ECF81E0933009F080E020E249EADD
:1057C0005EE06F2D83CF80915D0710925D07882387
:1057D00061F320EB3EE03093D8052093D70580910C
:1057E0007C07882311F387CF90916607943071F07E
:1057F00080914002882309F46BCF81E0943009F056
:1058000080E020E24DE95EE0602F60CF80915D078F
:1058100010925D07882361F324EA3EE03093D805B7
:105820002093D70580917C07882311F364CF909152
:105830006607953071F080914002882309F448CFC3
:1058400081E0953009F080E020E241E95EE0612FDF
:105850003DCF80915D0710925D07882361F328E9B1
:105860003EE03093D8052093D70580917C078823AC
:1058700011F341CF80915D0710925D078823C1F03D
:10588000B092D805A092D70580917C07882381F03B
:1058900032CFC33009F485CFC43009F4A5CFC53069
:1058A00031F2C63009F014CF90916607963011F3AB
:1058B00080914002882309F40BCF81E0963009F0F3
:1058C00080E020E24CE75EE06D2F00CF0C94E72AE9
:1058D0002F923F924F925F926F927F928F929F9200
:1058E000AF92BF92CF92DF92EF92FF920F931F93EE
:1058F000CF93DF930E940F1DD82F0E943182C09159
:1059000064072C2E85E0382E3C0E0EE110E292ED5D
:10591000E92E9CE0F92E84E0782E7C1A2AE1C22E32
:1059200020E2D22E34ECA32E3CE0B32E83E0682E8E
:105930006C1A46E1842E40E2942E82E0582E5C1AC6
:1059400081E0482E4C1AC11137C080916607882328
:10595000A1F080914002882361F0622D619581E081
:1059600090916607911180E024E044E05DE00E94A0
:105970004E81DD2309F4ACC0C8C080915D07109250
:105980005D07882331F30E94E72A80917C078823F2
:1059900001F3DF91CF911F910F91FF90EF90DF9076
:1059A000CF90BF90AF909F908F907F906F905F90BF
:1059B0004F903F902F900895C13019F58091660760
:1059C000813081F080914002882309F49CC081E0FD
:1059D00090916607913009F080E023E042EF5CE0AF
:1059E000642DC5CF80915D0710925D07882351F328
:1059F0008DE79EE20E94A82A80917C07882311F3FC
:105A0000C8CFC23009F066C0809166078230E1F0ED
:105A100080914002882309F476C09F928F9283EE92
:105A20009CE09F938F935F9281E090916607923004
:105A300009F080E08F930E9422200F900F900F902A
:105A40000F900F900F9095CF80915D0710925D079A
:105A50008823F1F20E94162080917C078823C1F2EE
:105A600098CF80915D0710925D078823E1F10E9435
:105A70001A2080917C078823B1F18BCF80915D073C
:105A800010925D07882369F00E941E2080917C0798
:105A9000882339F07ECFC430D9F4809166078430F2
:105AA00069F380914002882399F01F930F93FF922E
:105AB000EF927F9281E090916607943011F58F9379
:105AC0000E9422200F900F900F900F900F900F9038
:105AD00085E01CC0D11119C0C330E9F6809166077A
